{
  "_format": "hh-sol-artifact-1",
  "contractName": "AIWalletManager",
  "sourceName": "contracts/AIWalletManager.sol",
  "abi": [
    {
      "inputs": [],
      "stateMutability": "nonpayable",
      "type": "constructor"
    },
    {
      "anonymous": false,
      "inputs": [
        {
          "indexed": true,
          "internalType": "address",
          "name": "agent",
          "type": "address"
        }
      ],
      "name": "AgentAuthorized",
      "type": "event"
    },
    {
      "anonymous": false,
      "inputs": [
        {
          "indexed": true,
          "internalType": "address",
          "name": "agent",
          "type": "address"
        }
      ],
      "name": "AgentDeauthorized",
      "type": "event"
    },
    {
      "anonymous": false,
      "inputs": [
        {
          "indexed": true,
          "internalType": "address",
          "name": "account",
          "type": "address"
        },
        {
          "indexed": false,
          "internalType": "uint256",
          "name": "amount",
          "type": "uint256"
        }
      ],
      "name": "Deposit",
      "type": "event"
    },
    {
      "anonymous": false,
      "inputs": [
        {
          "indexed": true,
          "internalType": "address",
          "name": "account",
          "type": "address"
        },
        {
          "indexed": false,
          "internalType": "uint256",
          "name": "amount",
          "type": "uint256"
        }
      ],
      "name": "Withdrawal",
      "type": "event"
    },
    {
      "inputs": [
        {
          "internalType": "address",
          "name": "agent",
          "type": "address"
        }
      ],
      "name": "authorizeAgent",
      "outputs": [],
      "stateMutability": "nonpayable",
      "type": "function"
    },
    {
      "inputs": [
        {
          "internalType": "address",
          "name": "agent",
          "type": "address"
        }
      ],
      "name": "deauthorizeAgent",
      "outputs": [],
      "stateMutability": "nonpayable",
      "type": "function"
    },
    {
      "inputs": [
        {
          "internalType": "address",
          "name": "account",
          "type": "address"
        }
      ],
      "name": "deposit",
      "outputs": [],
      "stateMutability": "payable",
      "type": "function"
    },
    {
      "inputs": [
        {
          "internalType": "address",
          "name": "account",
          "type": "address"
        }
      ],
      "name": "getBalance",
      "outputs": [
        {
          "internalType": "uint256",
          "name": "",
          "type": "uint256"
        }
      ],
      "stateMutability": "view",
      "type": "function"
    },
    {
      "inputs": [],
      "name": "getOwner",
      "outputs": [
        {
          "internalType": "address",
          "name": "",
          "type": "address"
        }
      ],
      "stateMutability": "view",
      "type": "function"
    },
    {
      "inputs": [
        {
          "internalType": "address",
          "name": "agent",
          "type": "address"
        }
      ],
      "name": "isAuthorizedAgent",
      "outputs": [
        {
          "internalType": "bool",
          "name": "",
          "type": "bool"
        }
      ],
      "stateMutability": "view",
      "type": "function"
    },
    {
      "inputs": [],
      "name": "owner",
      "outputs": [
        {
          "internalType": "address",
          "name": "",
          "type": "address"
        }
      ],
      "stateMutability": "view",
      "type": "function"
    },
    {
      "inputs": [
        {
          "internalType": "address",
          "name": "newOwner",
          "type": "address"
        }
      ],
      "name": "transferOwnership",
      "outputs": [],
      "stateMutability": "nonpayable",
      "type": "function"
    },
    {
      "inputs": [
        {
          "internalType": "address payable",
          "name": "account",
          "type": "address"
        },
        {
          "internalType": "uint256",
          "name": "amount",
          "type": "uint256"
        }
      ],
      "name": "withdraw",
      "outputs": [],
      "stateMutability": "nonpayable",
      "type": "function"
    }
  ],
  "bytecode": "0x608060405234801561001057600080fd5b50600280546001600160a01b0319163317905561087d806100326000396000f3fe6080604052600436106100865760003560e01c80638da5cb5b116100595780638da5cb5b1461014d578063f2fde38b1461016d578063f340fa011461018d578063f3fef3a3146101a0578063f8b2cb4f146101c057600080fd5b80636bf722ab1461008b5780636d88b24d146100d9578063770c0fb2146100fb578063893d20e81461011b575b600080fd5b34801561009757600080fd5b506100c46100a636600461075b565b6001600160a01b031660009081526001602052604090205460ff1690565b60405190151581526020015b60405180910390f35b3480156100e557600080fd5b506100f96100f436600461075b565b610204565b005b34801561010757600080fd5b506100f961011636600461075b565b6102d4565b34801561012757600080fd5b506002546001600160a01b03165b6040516001600160a01b0390911681526020016100d0565b34801561015957600080fd5b50600254610135906001600160a01b031681565b34801561017957600080fd5b506100f961018836600461075b565b610347565b6100f961019b36600461075b565b6103e1565b3480156101ac57600080fd5b506100f96101bb36600461077e565b6104ef565b3480156101cc57600080fd5b506101f66101db36600461075b565b6001600160a01b031660009081526020819052604090205490565b6040519081526020016100d0565b6002546001600160a01b031633146102375760405162461bcd60e51b815260040161022e906107a9565b60405180910390fd5b6001600160a01b0381166102855760405162461bcd60e51b8152602060048201526015602482015274496e76616c6964206167656e74206164647265737360581b604482015260640161022e565b6001600160a01b0381166000818152600160208190526040808320805460ff1916909217909155517f26e663c48c070d2d3c2bf6bcf88dc0a1e3ae99c58c36411130bed5924cf952669190a250565b6002546001600160a01b031633146102fe5760405162461bcd60e51b815260040161022e906107a9565b6001600160a01b038116600081815260016020526040808220805460ff19169055517f69258123e9dbc03da1ee0667259dcd60f4a7c1202406374c0a10d8fca01111789190a250565b6002546001600160a01b031633146103715760405162461bcd60e51b815260040161022e906107a9565b6001600160a01b0381166103bf5760405162461bcd60e51b8152602060048201526015602482015274496e76616c6964206f776e6572206164647265737360581b604482015260640161022e565b600280546001600160a01b0319166001600160a01b0392909216919091179055565b600034116104315760405162461bcd60e51b815260206004820152601d60248201527f416d6f756e74206d7573742062652067726561746572207468616e2030000000604482015260640161022e565b6001600160a01b0381166104815760405162461bcd60e51b8152602060048201526017602482015276496e76616c6964206163636f756e74206164647265737360481b604482015260640161022e565b6001600160a01b038116600090815260208190526040812080543492906104a99084906107ea565b90915550506040513481526001600160a01b038216907fe1fffcc4923d04b559f4d29a8bfc6cda04eb5b0d3c460751c2402c5c5cc9109c9060200160405180910390a250565b6002546001600160a01b031633148061051757503360009081526001602052604090205460ff165b6105545760405162461bcd60e51b815260206004820152600e60248201526d139bdd08185d5d1a1bdc9a5e995960921b604482015260640161022e565b600081116105a45760405162461bcd60e51b815260206004820152601d60248201527f416d6f756e74206d7573742062652067726561746572207468616e2030000000604482015260640161022e565b6001600160a01b0382166105f45760405162461bcd60e51b8152602060048201526017602482015276496e76616c6964206163636f756e74206164647265737360481b604482015260640161022e565b6001600160a01b0382166000908152602081905260409020548111156106535760405162461bcd60e51b8152602060048201526014602482015273496e73756666696369656e742062616c616e636560601b604482015260640161022e565b6001600160a01b0382166000908152602081905260408120805483929061067b908490610802565b90915550506040516000906001600160a01b0384169083908381818185875af1925050503d80600081146106cb576040519150601f19603f3d011682016040523d82523d6000602084013e6106d0565b606091505b50509050806107135760405162461bcd60e51b815260206004820152600f60248201526e151c985b9cd9995c8819985a5b1959608a1b604482015260640161022e565b826001600160a01b03167f7fcf532c15f0a6db0bd6d0e038bea71d30d808c7d98cb3bf7268a95bf5081b658360405161074e91815260200190565b60405180910390a2505050565b60006020828403121561076c578081fd5b81356107778161082f565b9392505050565b60008060408385031215610790578081fd5b823561079b8161082f565b946020939093013593505050565b60208082526021908201527f4f6e6c79206f776e65722063616e2063616c6c20746869732066756e6374696f6040820152603760f91b606082015260800190565b600082198211156107fd576107fd610819565b500190565b60008282101561081457610814610819565b500390565b634e487b7160e01b600052601160045260246000fd5b6001600160a01b038116811461084457600080fd5b5056fea2646970667358221220b5b4fcc7bc44ebee4e28074f1d8d45dbde1c74884dd764cfb83f5e9677e1716b64736f6c63430008040033",
  "linkReferences": {},
  "deployedLinkReferences": {}
}